:020000040800F2
:10000000E0140020DD040008D9040008D904000829
:10001000D9040008D9040008D90400080000000031
:10002000000000000000000000000000D9040008EB
:10003000D904000800000000D90400084D0F000892
:10004000D9040008D9040008D9040008D90400081C
:10005000D9040008D9040008D9040008D90400080C
:10006000510D0008D9040008D9040008D90400087B
:10007000D9040008D9040008D9040008D9040008EC
:10008000D9040008D9040008D9040008D9040008DC
:10009000D9040008D9040008D9040008D9040008CC
:1000A000D9040008D9040008D9040008D9040008BC
:1000B0004D0E0008D9040008D9040008D90400082E
:1000C000D9040008D9040008D9040008D90400089C
:1000D000D9040008D9040008650B00085D0C00086D
:1000E000D9040008D9040008D9040008D90400087C
:1000F000D9040008D9040008D9040008D90400086C
:10010000D9040008D9040008D9040008D90400085B
:10011000D9040008D9040008D9040008D90400084B
:10012000D9040008D9040008D9040008D90400083B
:10013000D9040008D9040008D9040008D90400082B
:10014000D9040008D9040008D9040008D90400081B
:10015000D9040008D9040008D9040008E10B0008FC
:10016000D9040008D9040008D9040008D9040008FB
:10017000D9040008D9040008D9040008D9040008EB
:10018000D9040008D904000810B5054C237833B908
:10019000044B13B10448AFF300800123237010BD5A
:1001A0004804002000000000541B000808B5064B5E
:1001B0001BB106480649AFF300800648036813B137
:1001C000054B03B1984708BD00000000541B000810
:1001D0004C0400204404002000000000F0B50D464F
:1001E000018AEF882E89AB88AA8989B2044621F456
:1001F0004051394368892182A189334389B203433D
:1002000021F4B05121F00C019BB20B43A381A38ACE
:100210009BB223F44073134385B0A382684600F079
:1002200029FE1D4B9C4229D003F580639C4225D0BA
:10023000029BA2892968A08912B2002A03EB8303DA
:10024000B4BF4900890003EB8303B3FBF1F2134908
:1002500000B2A1FB02535B096425002803FB1522B1
:100260004FEA03130CDB12013232A1FB0251C1F33E
:1002700043110B439BB2238105B0F0BD039BD8E72C
:10028000D2003232A1FB0201C1F342110B439BB2F7
:10029000238105B0F0BD00BF001001401F85EB5168
:1002A000838929B923F400531B041B0C83817047F5
:1002B0009BB243F400538381704700BFC1F3080130
:1002C000818070478088C0F30800704701F01F03E9
:1002D00010B4C1F342110124A14204FA03F310D077
:1002E00002290CBF1030143004682AB924EA030331
:1002F00003605DF8044B7047234303605DF8044BD3
:1003000070470C30F0E700BF038819420CBF002093
:100310000120704710B4C1F34213012401F01F0201
:10032000A34204FA02F217D0022B0CBF038A838A7D
:100330009BB21340028892B253B1090A012303FA17
:1003400001F111420CBF002001205DF8044B704701
:1003500018465DF8044B704783899BB21340E9E768
:10036000090A012303FA01F1C94389B201807047E8
:100370002DE9F041324C334E334F4FF40045E2212A
:100380006583304600F0EEFD258307213046658306
:1003900000F0E8FDFF21304600F0E4FD40F01000E1
:1003A0005FFA80F8258327213046658300F0DAFD67
:1003B0004146304600F0D6FD25830721304665834F
:1003C00000F0D0FDFF21304600F0CCFD40F02000D1
:1003D0005FFA80F8258327213046658300F0C2FD4F
:1003E0004146304600F0BEFD258307213046658337
:1003F00000F0B8FDFF21304600F0B4FD40F04000B1
:100400005FFA80F8258327213046658300F0AAFD36
:10041000414630464FF0010800F0A4FD258320211D
:10042000A7F81A803046658300F09CFD30463B21DA
:1004300000F098FD2583A7F81880BDE8F08100BF83
:1004400000000240003C004000080240F8B50E4D9C
:100450000E4C4FF40046074661216E83204600F0A3
:1004600081FD0B4B3A461B783946204600F092FD41
:100470002E83272120466E8300F074FD2046402104
:1004800000F070FD2E83F8BD00000240003C0040EB
:10049000B80C002038B50E4C0E484FF4004565836B
:1004A000FF2100F05FFD4306258301D5012038BD03
:1004B00065831721074800F055FDFF21054800F02E
:1004C00051FD00F0010080F00100258338BD00BF20
:1004D00000000240003C0040FEE700BF08B51148A4
:1004E000114B984207D2C243134423F00302043253
:1004F0000E4901F009FA0E480E494FF000028842F9
:10050000B8BF40F8042BFFF6FAAFDFF82C00016803
:1005100041F47001016000F0E1FDBDE8084000F029
:1005200085BA00BF0000002048040020541B0008CA
:1005300048040020DC0C002088ED00E0274B10B4BC
:10054000840000211A1943F820109160116191690B
:100550000A2918DD0A211161234400221A629A62D5
:100560001A639A6B0A2A24DC9A6B0A321CDB9A6B98
:10057000002A9A6B29DD1A639A6B5DF8044BC2F16D
:100580000A021A62704791690A3102DA0A219160FF
:10059000E2E791690029916910DD11619269C2F168
:1005A0000A0243F82020D7E70A229A625DF8044B3A
:1005B00070470A221A635DF8044B70474942916004
:1005C00092690A3243F82020C6E752429A629A6B37
:1005D0005DF8044B0A321A62704700BF64040020C1
:1005E0003B4B81005A18F0B4956A9468384FA54285
:1005F000B4BF966A9668C200151803EB85055C18AF
:100600002E64266AA568AE4202EB000503EB850561
:10061000B4BF266AA6686E645C18266BA568AE42F5
:1006200002EB000503EB8505B4BF266BA668AE643C
:100630005C18A66A53F82050AE4202EB000503EBAB
:100640008505ACBF57F82060A66AEE645C18204FA1
:10065000266A53F82050AE4202EB000503EB8505F5
:10066000ACBF57F82060266A2E655C18184F266BC1
:1006700053F82050AE4202EB000503EB8505ACBFFA
:1006800057F82060266B6E655C18A66A2569AE4235
:1006900002EB0005B4BFA66A266903EB85055C186A
:1006A000AE65266A2569AE42B4BF256A256914186D
:1006B00003EB84041944E5650D6B0C691044A542F5
:1006C00003EB8003B4BF096B09691966F0BC70477E
:1006D000640400207F4BC1002DE9F0017E4E7F4F66
:1006E0000C18820003EB84040025356003EB020C38
:1006F00075603D607D60256DCCF88850D4F84CC0A5
:10070000656CAC45CCBFD4F84CC0D4F844C00D18CF
:100710009C1803EB8505C4F890C0D4F89080D5F8F8
:100720005CC0E045CCBFD4F890C0D5F85CC09C1844
:100730000D1803EB8505C4F890C0D4F89080D5F867
:1007400054C0E045CCBFD4F890C0D5F854C09C1834
:100750000D1803EB8505C4F890C0D4F89080D5F847
:1007600040C0E045CCBFD4F890C0D5F840C09C183C
:100770000D1803EB8505C4F890C0D4F89080D5F827
:1007800060C0E045CCBFD4F890C0D5F860C00C186C
:100790009D1803EB8404C5F890C0D4F848C0A56D3B
:1007A000AC45CCBFD4F848C0D4F858C00C1803EB03
:1007B00084049D18C5F898C0D4F848C0A56DAC4510
:1007C000CCBFD4F848C0D4F858C00D189C1803EB1F
:1007D0008505C4F8A0C0D4F8A080D5F850C0E04585
:1007E000CCBFD4F8A0C0D5F850C00C189D1803EBAE
:1007F0008404C5F8A0C0D4F840C0656CAC45CCBF3B
:10080000D4F840C0D4F844C00D189C1803EB8505FB
:10081000C4F8A8C0D4F8A880D5F85CC0E045CCBF27
:10082000D4F8A8C0D5F85CC09C180D1803EB85055A
:10083000C4F8A8C0D4F8A880D5F860C0E045CCBF03
:10084000D4F8A8502D6EDFF89CC09C18014403EB2F
:100850008101C4F8A850CD6C4C6D1344A542CCBFA7
:10086000C96C496DC3F8B010D3F88810D3F8904024
:10087000D3F898201A4D01EB440102EB42020A44DE
:1008800047F82020D3F8A040D3F8A810D3F8B02020
:1008900004EB440401EB410104EB410102EBC20211
:1008A0000A4446F82020D3F88840D3F89020D3F8A3
:1008B000981022440A444CF82020D3F8A040D3F8E2
:1008C000A810D3F8B0206318134445F82030BDE8D1
:1008D000F001704764040020D40C0020BC0C002000
:1008E000C40C0020CC0C00204A4A52F820302DE9DC
:1008F000F0412BBB484C83002344474AD3F8C050F7
:10090000D3F8B8102944C3F8C01000283CD1D2F85D
:10091000C030002BD2F8C03055DBFE2BC8BFFE2301
:100920003E48C8BFC2F8C030FE2100F0DDFDD4F85B
:10093000C0103A48C1F1FE01BDE8F04100F0D6BD5B
:10094000374D354C55F8203013B38300E118354E40
:10095000D1F818C056F8208052F82060324F08FBBA
:100960000CF292FBF6F2C1F8B820D1F8B8608A6BAD
:1009700057F8207055F8205007FB02F292FBF5F271
:100980003244C1F8B820B7E7012803D0BDE8F081B0
:100990008300B1E7D2F8C430002BD2F8C43025DB95
:1009A000FE2BC8BFFE231D48C8BFC2F8C430FE21BD
:1009B00000F0A0FDD4F8C4101848C1F1FE01BDE854
:1009C000F04100F095BDFE33B8BF6FF0FD03134852
:1009D000B8BFC2F8C030FE2100F088FDD4F8C010C6
:1009E0000E48FE31BDE8F04100F07EBDFE33B8BFD9
:1009F0006FF0FD030948B8BFC2F8C430FE2100F013
:100A000077FDD4F8C4100548FE31BDE8F04100F090
:100A100071BD00BFCC0C0020640400200008004021
:100A2000C40C0020BC0C0020D40C00202DE9F041A7
:100A3000484C00F06FFD00F059FE00F023FF00F07D
:100A4000EDFE00F09DFD00F0FFFD00F0CBFD00236A
:100A50004148C4F8C8304FF40061C4F8CC3000F00D
:100A60001FFB002871D07F2384F8D03001213A4841
:100A7000384F00F015FB022580462946364800F025
:100A80000FFB4FF480610646334800F009FB15FB6D
:100A9000086300EB430300262F48C4F8D4304FF41A
:100AA0008041C4F8D860C4F8DC6000F001FB2A483B
:100AB0004FF4004100F0FCFAB84607E0D4F8E43007
:100AC000012B21D0D4F8E850012D2FD0D4F8E030FC
:100AD000012BF3D1C7F8E06020488021FFF714FC18
:100AE0000028F9D01D480021FFF7E8FB1C488021B1
:100AF000FFF70AFC0028F9D019480021FFF7DEFBB8
:100B0000D4F8E430012BDDD10020FFF717FD0020E1
:100B1000FFF766FD0020FFF7DDFD0020FFF7E4FE94
:100B2000C7F8E460D4F8E850012DCFD12846FFF78C
:100B300005FD2846FFF754FD2846FFF7CBFD284664
:100B4000FFF7D2FEC8F8E860C0E77E2384F8D03013
:100B50008CE700BF64040020000402400044004011
:100B60000014014008B51B4840F22551FFF7D2FBA5
:100B7000012800D008BD1748FFF7A4FB164BC3F8A7
:100B8000D800D3F8D820802A04DDD3F8D820FE3A44
:100B9000C3F8D820D3F8D8200E485200C3F8D82084
:100BA000D3F8EC10D3F8D8208A1A9A619969D3F84F
:100BB000F4208A1A9A639A69C3F8F42040F2255106
:100BC0000122C3F8E420FFF7CBFB044B4022C3F81B
:100BD000842108BD004400406404002000E100E0DE
:100BE00008B51B4840F22551FFF794FB012800D0BF
:100BF00008BD1748FFF766FB164BC3F8DC00D3F8B7
:100C0000DC20802A04DDD3F8DC20FE3AC3F8DC20A7
:100C1000D3F8DC200E485200C3F8DC20D3F8F010E3
:100C2000D3F8DC208A1ADA61D969D3F8F8208A1A55
:100C3000DA63DA69C3F8F82040F225510122C3F8DB
:100C4000E820FFF78DFB044B8022C3F8882108BD04
:100C5000001401406404002000E100E010B53848B1
:100C600040F22551FFF756FB012800D010BD344853
:100C7000344CFFF727FBC4F8FC0094F8D020D4F8DC
:100C8000FC3052B29A421FD0D4F8D420D4F80011CC
:100C90002C4B5200501C884225D0D3F80011023250
:100CA0008A4231D0D3F8002142BBD4F80031254C20
:100CB0000B2B34D0224840F22551FFF751FB224B39
:100CC0008022C3F8842110BDD4F80031002BDBD181
:100CD000D4F800311D4801334FF48041C4F800318D
:100CE00000F0E4F9E1E7D3F8FC205200C3F8042156
:100CF000D3F800210132C3F80021D6E7D3F8002150
:100D00000132C3F80021D0E7D3F8FC205200C3F829
:100D10000821D3F800210132C3F80021C5E7D4F837
:100D20000431C4F8EC30D4F808310848C4F8F03085
:100D30004FF4004100F0BAF90023C4F80031B9E7DC
:100D4000004800406404002000E100E0000402408C
:100D5000394B1A68520710B502D55B695B0700D49E
:100D600010BDFFF797FB58BB344C94F8D020D4F853
:100D7000FC3052B29A4229D0D4F8D420D4F80011D1
:100D80002E4B5200501C88422FD0D3F80011023253
:100D90008A4235D0D3F8002122B1D3F800210132A4
:100DA000C3F80021D4F80031244C0B2B33D004209D
:100DB00000F0F8F9224B4FF48072C3F8802110BD87
:100DC0002048FFF743FBFFF7D3FACDE7D4F8003113
:100DD000002BD1D1D4F800311B4801334FF48041AE
:100DE000C4F8003100F062F9DCE7D3F8FC205200CF
:100DF000C3F80421D3F800210132C3F80021D1E760
:100E0000D3F8FC205200C3F80821D3F800210132A6
:100E1000C3F80021C6E7D4F80431C4F8EC30D4F8A4
:100E200008310948C4F8F0304FF4004100F03EF9B1
:100E30000023C4F80031BAE7003C014064040020FC
:100E400000E100E0600500200004024008B5074A08
:100E5000012319464FF08040C2F8E03000F056FB05
:100E6000034B4FF08052C3F8802108BD640400207A
:100E700000E100E01F4A936803F00C03042B10B458
:100E80001BD0082B1CD01C4B03601A491B4A8C68D2
:100E9000C4F30314145DE34043608C68C4F38224FC
:100EA000145D23FA04F4846089685DF8044BC1F38F
:100EB0004231525CD340C3607047114B0360E4E79A
:100EC00054685168526863024CBF0D4B0A4B01F0E5
:100ED0003F01C2F38812B3FBF1F303FB02F3054AAF
:100EE0005268C2F3014201325200B3FBF2F30360D5
:100EF000CBE700BF003802400024F40000000020CF
:100F000040787D01044B1A6B19B922EA000018637E
:100F1000704710431863704700380240044B1A6C46
:100F200019B922EA0000186470471043186470472A
:100F300000380240044B5A6C19B922EA0000586488
:100F4000704710435864704700380240044B5A6899
:100F500001325A601A6812B11A68013A1A60704771
:100F6000AC0C002010B5044681812046022100F01F
:100F700013F90028F9D02046012100F00DF90028CE
:100F8000F9D02046802100F007F90028F9D1A08986
:100F9000C0B210BD2DE9F04104460F469046EBB1BA
:100FA000013B9EB2013600257B5DA38120460221D4
:100FB00000F0F2F80028F9D02046012100F0ECF80A
:100FC0000028F9D02046802100F0E6F80028F9D169
:100FD000A38908F805300135B542E5D1BDE8F081B7
:100FE00000222DE9F00713460E6801274FF0030891
:100FF00004E00133102B02F102022ED007FA03F4B1
:1010000004EA0605A542F4D1D0F8009091F804C096
:1010100008FA02F4E44304EA0909C0F80090D0F8A1
:1010200000900CFA02FA0CF1FF3C5FFA8CFC4AEAE1
:101030000909BCF1010FC0F8009011D9C56891F8F9
:1010400007C02C40C460C5680CFA02F401332C437D
:10105000102BC46002F10202D0D1BDE8F007704746
:10106000D0F808A091F8059091F806C004EA0A0AA1
:10107000C0F808A0D0F808A009FA02F949EA0A095C
:10108000C0F80890D0F8049029EA05054560456845
:101090000CFA03FC1FFA8CFC4CEA05054560CDE711
:1010A000036919420CBF002001207047018370477B
:1010B00041837047CB0800EB830001F0070110B4B7
:1010C0008900046A0F238B4024EA03030362036A46
:1010D0005DF8044B8A40134303627047284A294B4A
:1010E000D2F88800284940F4700030B4C2F8880073
:1010F0001A68264D264C002042F001021A609860C2
:101100001A6822F0847222F480321A605D601A68D4
:1011100022F480221A60D8601A6C42F080521A645D
:101120000A6842F480420A609A689A609A6842F4B7
:1011300000429A609A6842F4A0529A605C601A6811
:1011400042F080721A6019460B680E4A9B01FBD56B
:10115000104B40F205611960936823F0030393601C
:10116000936843F002039360936803F00C03082B29
:10117000FAD1034B4FF000629A6030BC704700BF59
:1011800000ED00E000380240007000401030002404
:1011900010540007003C0240038919420CBF002094
:1011A00001207047014B5861704700BF003C01406F
:1011B000C378F0B463B90378194A5909203103F0B0
:1011C0001F03012000FA03F342F82130F0BC7047FE
:1011D000144B4778DA68857803781149D243C2F313
:1011E0000222C2F104040F26E4B207FA04F446FA1C
:1011F00002F2E4B22A40224303F1604303F5614363
:101200001201D2B283F800230378012003F01F02F9
:101210005B0900FA02F241F82320F0BC704700BFDE
:1012200000E100E000ED00E0234A0388904270B442
:101230009BB212D002F5806290420ED0B0F1804F86
:101240000BD0A2F58032904207D002F58062904226
:1012500003D002F58062904203D14A8823F07003E4
:101260001343164A90421ED002F5806290421AD073
:101270000E894D680C8823F4407302F56C429BB2D2
:10128000334390420380C562048506D00C4B9842DC
:1012900003D00123838270BC70478B7A03860123BD
:1012A000838270BC704703800B884A68C2620385E2
:1012B0000123838270BC7047000001400010004091
:1012C00000040140038829B923F001031B041B0C0F
:1012D000038070479BB243F001030380704700BF57
:1012E000F0B4048CB1F802C08F890E881B4D24F035
:1012F00001042404240C0484028C8488038B22F0CF
:10130000020223F0730312044CEA07071B04120CB9
:10131000BFB21B0CA84247EA0202A4B243EA06038A
:101320000AD005F58065A84206D0896884800383C9
:10133000F0BC416302847047B1F80EC04F8A0D8A39
:101340008E8822F0080242EA0C023D4324F44074E5
:1013500022F00402ADB232432C43E6E70000014024
:10136000F0B4048CB1F80CC04F880E881F4D24F0E7
:1013700010042404240C0484028C8488038B22F03F
:101380002002120423F4E643120C1B0442EA0C125E
:101390001B0C42EA071243EA0623A84292B2A4B207
:1013A0009BB20AD005F58065A84206D08968848082
:1013B0000383F0BC816302847047CD89B1F810C00B
:1013C0008F884E8A22F0800292B242EA051224F4FB
:1013D00040644FF6BF75154044EA8C0445EA071295
:1013E00044EA860492B2A4B2E0E700BF00000140E4
:1013F000F0B4048CB1F80CC04F880E881E4D24F454
:1014000080742404240C0484028C8488838B22F44A
:1014100000721204120C23F0730342EA0C221B0424
:1014200042EA07221B0CA84292B2A4B243EA060386
:101430000AD005F58065A84206D089688480838338
:10144000F0BCC16302847047CD89B1F810C08F88A9
:101450004E8A22F4006292B242EA052224F44054F9
:101460004FF6FF35154044EA0C1445EA072244EADA
:10147000061492B2A4B2E0E700000140F0B4048C7C
:10148000B1F80CC04F880E88164D24F48054240403
:10149000240C0484028C8488838B22F4005212046E
:1014A00023F4E643120C1B0442EA0C321B0C42EA02
:1014B000073243EA0623A84292B2A4B29BB20AD0F2
:1014C00005F58065A84206D0896884808383F0BCD6
:1014D0000164028470470D8A24F4804444EA851430
:1014E000A4B2F1E700000140416370478163704797
:1014F000C16370470164704783899BB21AB923EABC
:10150000010181817047194381817047C94389B2C4
:1015100001827047012008B50146FFF7F3FC022065
:101520000121FFF7EFFC04200121FFF7EBFC08206D
:101530000121FFF7E7FC10200121FFF7E3FC202049
:101540000121FFF7DFFC4FF480400121FFF7F2FC9F
:101550004FF400300121FFF7E1FC4FF4802001211E
:10156000FFF7DCFC20200121FFF7E4FC042001212F
:10157000FFF7D4FC01200146BDE80840FFF7CEBCD0
:1015800070B5174E86B000244FF4164202A93046BB
:101590000C2301250292ADF81230ADF81440ADF8DD
:1015A0001040ADF80E40ADF80C40FEF717FE2623B4
:1015B00001A88DF804308DF806408DF807508DF89D
:1015C0000550FFF7F5FD30462A4640F22551FEF75B
:1015D0007DFE30462946FEF763FE06B070BD00BFB3
:1015E0000044004070B5174E86B000244FF41642F8
:1015F00002A930460C2301250292ADF81230ADF855
:101600001440ADF81040ADF80E40ADF80C40FEF7B8
:10161000E5FD472301A88DF804308DF806408DF8CC
:1016200007508DF80550FFF7C3FD30462A4640F2BB
:101630002551FEF74BFE30462946FEF731FE06B037
:1016400070BD00BF00140140F0B5264F264E89B092
:101650004FF0020C4FF4406E00240125032338465E
:101660000A2107228DF80CC0CDF808E08DF80D3066
:101670008DF80F508DF80E40FFF71CFD38460722FD
:101680000B21FFF717FD384602A9FFF7A9FC4FF41D
:10169000164204A930460C230492ADF81A30ADF876
:1016A0001C40ADF81840ADF81640ADF81440FEF7F8
:1016B00095FD272301A88DF804308DF806408DF89C
:1016C00007508DF80550FFF773FD30462A4640F26B
:1016D0002551FEF7FBFD30462946FEF7E1FD09B036
:1016E000F0BD00BF00080240004800402DE9F0476F
:1016F000464FDFF820A1DFF820918CB000240326AC
:101700004FF0010838464FF44043694602250093E4
:101710008DF804808DF805608DF807408DF806403F
:10172000FFF75EFC384640F6034302A902938DF8AA
:101730000C408DF80D608DF80F808DF80E40FFF78E
:101740004FFC4FF4707338462A46062104938DF8F7
:1017500017408DF816408DF815608DF81450FFF77E
:10176000A9FC38462A460721FFF7A4FC38462A463A
:101770000821FFF79FFC2A4638460921FFF79AFC0B
:10178000384604A9FFF72CFC0C23294650460722B3
:1017900006938DF81C508DF81D608DF81F808DF814
:1017A0001E40FFF787FC504631460722FFF782FCB8
:1017B000504606A9FFF714FCC0234846062108221C
:1017C00008938DF824508DF825608DF827808DF8CA
:1017D0002640FFF76FFC082248460721FFF76AFC06
:1017E000484608A9FFF7FCFB042309488DF82D6043
:1017F0000AA98DF82C408DF82F408DF82E400A93C1
:10180000FFF7EEFB0CB0BDE8F08700BF000402401C
:10181000000C0240000002400008024030B587B0D2
:10182000002502A942F2CF0220234FF0804001247C
:10183000ADF808200393ADF81050ADF80A50FFF74B
:10184000F3FC02231C2201A88DF805308DF804203A
:101850008DF806508DF80740FFF7AAFC2146224676
:101860004FF08040FFF748FE054B4FF08052214675
:101870001A604FF08040FFF725FD07B030BD00BF74
:1018800000E100E070B51F4C88B0632200252046BF
:10189000FF236946ADF8002001930126ADF80850FA
:1018A000ADF80250FFF7C0FC6023204603A9ADF855
:1018B0000C30ADF81850ADF80E60FFF711FD204662
:1018C00003A9FFF74DFD204603A9FFF791FD204630
:1018D00003A9FFF7D3FD20463146FFF7F3FC20466E
:1018E0002946FFF701FE20462946FFF7FFFD204667
:1018F0002946FFF7FDFD20462946FFF7FBFD08B00E
:1019000070BD00BF00080040844641EA000313F0A8
:1019100003036DD1403A41D351F8043B40F8043BF6
:1019200051F8043B40F8043B51F8043B40F8043BB9
:1019300051F8043B40F8043B51F8043B40F8043BA9
:1019400051F8043B40F8043B51F8043B40F8043B99
:1019500051F8043B40F8043B51F8043B40F8043B89
:1019600051F8043B40F8043B51F8043B40F8043B79
:1019700051F8043B40F8043B51F8043B40F8043B69
:1019800051F8043B40F8043B51F8043B40F8043B59
:1019900051F8043B40F8043B403ABDD2303211D3F9
:1019A00051F8043B40F8043B51F8043B40F8043B39
:1019B00051F8043B40F8043B51F8043B40F8043B29
:1019C000103AEDD20C3205D351F8043B40F8043BF9
:1019D000043AF9D2043208D0D2071CBF11F8013BF7
:1019E00000F8013B01D30B8803806046704700BFBD
:1019F000082A13D38B078DD010F003038AD0C3F1CC
:101A00000403D21ADB071CBF11F8013B00F8013BAD
:101A100080D331F8023B20F8023B7BE7043AD9D36C
:101A2000013A11F8013B00F8013BF9D20B78037041
:101A30004B7843708B78837060467047024B13B1CC
:101A4000024800F005B87047000000005D1A000869
:101A5000014600200246034600F018B838B5094D8B
:101A6000094C641BA41018BF05EB840505D0013C8C
:101A700055F8043D9847002CF9D1BDE8384000F0F6
:101A80005FB800BF4004002044040020F0B5274C9C
:101A90002668D6F8484185B00746002C41D06568D5
:101AA0001F2D1EDD224818B94FF0FF3005B0F0BDE4
:101AB0004FF4C870039102920193AFF30080039931
:101AC000029A019B04460028EED0D6F848512560C2
:101AD000002060600546C6F84841C4F88801C4F893
:101AE0008C013FB9AB1C00200135656044F8231020
:101AF00005B0F0BD04EB85004FF0010CC0F8882064
:101B0000D4F888610CFA05F21643022FC4F88861F4
:101B1000C0F80831E6D1D4F88C311A43C4F88C21CE
:101B2000E0E706F5A674C6F84841B8E7501B000880
:101B300000000000F8B500BFF8BC08BC9E46704726
:101B4000F8B500BFF8BC08BC9E46704743000000D3
:041B50001000002061
:101B5400000000000102030401020304060708094F
:101B640000000000FC02002064030020CC030020DD
:101B74000000000000000000000000000000000061
:101B84000000000000000000000000000000000051
:101B9400000000004C1B00080000000000000000D2
:101BA4000000000000000000000000000000000031
:101BB4000000000000000000000000000000000021
:101BC4000000000000000000000000000000000011
:101BD4000000000000000000000000000000000001
:101BE40000000000000000000000000000000000F1
:101BF40000000000000000000000000000000000E1
:101C040000000000000000000100000000000000CF
:101C14000E33CDAB34126DE6ECDE05000B00000094
:101C240000000000000000000000000000000000B0
:101C340000000000000000000000000000000000A0
:101C44000000000000000000000000000000000090
:101C54000000000000000000000000000000000080
:101F840000000000000000003D1A0008AD01000838
:081F94008901000800000000B3
:0400000508000000EF
:00000001FF
